:100000000C942A000C9447000C9447000C94470071
:100010000C9447000C9447000C9447000C94470044
:100020000C9447000C9447000C9447000C94470034
:100030000C9447000C9447000C9447000C94470024
:100040000C9447000C9447000C9447000C94470014
:100050000C94470011241FBECFE5D4E0DEBFCDBF16
:1000600011E0A0E6B0E0E2EFF5E002C005900D92ED
:10007000A438B107D9F722E0A4E8B1E001C01D928D
:10008000A630B207E1F70E94AA020C94F7020C9482
:1000900000008AB180618AB980B5806880BD80B572
:1000A000866080BD83E389B908958AB188608AB982
:1000B00080B5806880BD80B5866080BD80B58E7F4C
:1000C00080BD80B58F7780BD80B5807F80BD8091F9
:1000D000600089B908955F9BFECF8CB108955D9B48
:1000E000FECF8CB9089590E007C0EFECF7E03197B0
:1000F000F1F700C000009F5F9817B8F3089588B328
:10010000826088BB81E00E94730088B38D7F88BBCA
:1001100081E00E9473000895CF93DF93613021F452
:1001200098B3916098BB05C0611103C098B39E7FDE
:1001300098BB90E1899FE0011124807F98B39F7064
:1001400098BB98B3892B88BB0E947F0081E00E94F6
:10015000730088B38F7088BB88B3C82BC8BB0E945C
:100160007F0081E00E947300DF91CF91089587B3F3
:100170008FEF87BB88B318BA86E90E94730060E0EE
:1001800083E30E948C0082E30E94730060E082E3BC
:100190000E948C0081E00E94730060E088E20E946F
:1001A0008C0081E00E94730060E081E00E948C007E
:1001B00084E10E94730060E086E00E948C0081E090
:1001C0000E94730060E080E80E948C0081E00E9441
:1001D000730060E08CE00E948C0081E00E9473005C
:1001E0000895CF93DF93EC0104C061E00E948C007E
:1001F000219688818111F9CFDF91CF910895962FB3
:10020000811106C060E080E8890F0E948C0008958B
:10021000813031F460E080EC890F0E948C000895F9
:10022000823031F460E084E9890F0E948C000895E7
:10023000833029F460E084ED890F0E948C000895DA
:1002400060E081E00E948C0084E10E9473000895C8
:1002500087B3846087BB0895813021F488B38460BC
:1002600088BB0895811103C088B38B7F88BB089534
:10027000873689F460E080E00E94FF0084E990E026
:100280000E94F10066E081E00E94FF0089EA90E0B0
:100290000E94F10008958336C1F460E082E00E947C
:1002A000FF0082EB90E00E94F10087EF91E00E9456
:1002B000F10060E083E00E94FF008AEB90E00E9482
:1002C000F10088EE91E00E94F10008951F93CF9312
:1002D000DF93CDB7DEB72A970FB6F894DEBF0FBE17
:1002E000CDBF1A821982FE01339688E0DF011D928C
:1002F0008A95E9F787E60E9438010E946B008432F4
:10030000E1F70E946B0010E008C0E12FF0E0EC572D
:10031000FE4F80831F5F0E946B008432B1F720E0A4
:100320000EC0822F90E0FC01EC57FE4F3081E1E0DF
:10033000F0E0EC0FFD1FE80FF91F30832F5F253031
:1003400080F362EC70E0CE0101960E94EE02892BF0
:1003500071F022C0E92FF0E0A82FB0E0AC57BE4FFB
:100360002C91E950FE4F20838F5F9F5F02C090E089
:1003700083E18E3178F390E08FE10CC0E92FF0E05B
:10038000A82FB0E0AC57BE4F2C91E851FE4F208310
:100390008F5F9F5F8B3290F383E60E9438012A962D
:1003A0000FB6F894DEBF0FBECDBFDF91CF911F9186
:1003B0000895833749F460E080E00E94FF0088ECF4
:1003C00090E00E94F1000AC0843641F460E080E0D1
:1003D0000E94FF008DED90E00E94F10060E082E05D
:1003E0000E94FF0082EF90E00E94F10060E083E055
:1003F0000E94FF008EEF90E00E94F10008951F938D
:10040000CF93DF93CDB7DEB7C455D1090FB6F894BB
:10041000DEBF0FBECDBF83E70E94D9018AE0EDE0C9
:10042000F1E0DE01119601900D928A95E1F788E1E5
:10043000E7E1F1E0DE011B9601900D928A95E1F76C
:1004400085E1E2E6F0E0DE01939601900D928A9557
:10045000E1F7FE01F8968DE1DF011D928A95E9F73B
:1004600067EF71E0CE0183960E94E30268EE71E0CF
:10047000CE0183960E94E30210E00AC0E1E0F0E0C2
:10048000EC0FFD1FE10FF11D80810E946F001F5FC7
:100490001A30A0F3BFEF24E38CE0B150204080403D
:1004A000E1F700C0000010E00AC0EBE0F0E0EC0F64
:1004B000FD1FE10FF11D80810E946F001F5F183149
:1004C000A0F39FEFA4E3BCE09150A040B040E1F75F
:1004D00000C0000010E00AC0E3E2F0E0EC0FFD1FF6
:1004E000E10FF11D80810E946F001F5F1233A0F3A6
:1004F00084E60E94D901CC5ADF4F0FB6F894DEBFD4
:100500000FBECDBFDF91CF911F91089518C060E05D
:1005100080E00E94FF008FE291E00E94F10060E025
:1005200081E00E94FF0084E491E00E94F10060E01D
:1005300083E00E94FF0089E591E00E94F100C89BE2
:10054000E6CF60E083E00E94FF008EE691E00E942B
:10055000F10008950E94B7000E9449000E945500D2
:100560000E9428018AB38E7F8ABB0E9486022FEFE9
:100570008EE994E2215080409040E1F700C00000F5
:100580000E94200181E00E942C010E9466012FEF51
:100590008EE994E2215080409040E1F700C00000D5
:1005A00080E00E942C010E9420010E94FF012FEF99
:1005B0008EE994E2215080409040E1F700C00000B5
:1005C0000E942001D2CFFB01DC010D900020E9F751
:1005D000119701900D920020E1F70895FB01DC01D5
:1005E0008D91019080190110D9F3990B0895F89419
:0205F000FFCF3B
:1005F20033004163636964656E742068617070657D
:100602006E732061742000000000000000000000F2
:1006120000000000000000000000000000000000D8
:1006220000000000202047455454494E47204C4FBB
:10063200434154494F4E20200046524F4D204750CF
:1006420053004C61742E203A20004C6F6E2E203ADB
:1006520020004750524D4300202053454E44494EFE
:1006620047204D455353414745202020002020205C
:10067200204D4553534147452053454E5420202099
:10068200200050484F4E45204E4F2E203A002B3925
:100692003137373635383134343437380041542B1A
:1006A200434D47463D310041542B434D47533D2274
:1006B2002B39313737363538313434373822002048
:1006C2004143434944454E542044455445435449CB
:1006D2004F4E2000202020202020205359535445E3
:1006E2004D20202020202020004E4F20414343490E
:1006F20044454E542044455445435445440020202B
:100702004143434944454E5420444554454354458E
:04071200442000007F
:00000001FF
